:100000000C943F000C945C000C945C000C945C001D
:100010000C945C000C945C000C945C000C945C00F0
:100020000C945C000C945C000C945C000C945C00E0
:100030000C945C000C945C000C945C000C94BB056C
:100040000C945C000C945C000C945C000C945C00C0
:100050000C945C000C945C000C945C000C945C00B0
:100060000C945C000C945C000C945C000C943706BF
:100070000C9411060C945C000C945C00650B11242C
:100080001FBECFEFCDBFDFE3DEBF28E3A0E0B8E3C4
:1000900001C01D92AC3CB207E1F710E0CFE3D0E025
:1000A00004C02197FE010E94CE0DCE33D107C9F7BF
:1000B0000E9465060C94F60D0C94000090911508B2
:1000C00096FFFCCF8093180882E0809314088091FB
:1000D00015088295817091E08927089590E0611557
:1000E000710529F06093CA387093CB3891E0880F7E
:1000F000892B8093170880911508807CE1F380910B
:10010000150883FD07C0809115088295817091E0E4
:100110008927089580E008958091CA389091CB385E
:10012000009729F001978093CA389093CB3880913B
:10013000150887FFFCCF809118082091CA383091AC
:10014000CB3892E0232B09F496E09093140808959D
:10015000282F30E0F901E95BF34640814F3F09F475
:1001600048C08C3050F4F901ED5DF346808188235E
:1001700021F0803191F0803821F1F901E55CF346FE
:10018000E08180E2E89FF0011124FC5F80818423FC
:10019000E9F0611119C046830895F901E15DF34664
:1001A0005081533008F05F5F7091010A81E090E068
:1001B00001C0880F5A95EAF7809587238093010A3A
:1001C000DCCF1092A006D9CF45830895215D334638
:1001D000D9018C91309771F08F3F61F07096E80FE4
:1001E000F11D9FB7F8948081611107C0877F8083DC
:1001F0009FBF0895F0E0E0E0F4CF8860F8CFCF93A0
:10020000DF9390E0FC01E95BF34620812F3F69F02A
:10021000FC01E55CF346A08130E2A39FD0011124EC
:10022000BC5F613029F411962C93DF91CF91089532
:10023000815D9346EC01E881EF3F81F0CD0140966E
:10024000E80FF92FF11D9FB7F89412962C93808137
:10025000623039F4886080839FBFE7CFF0E0E0E050
:10026000F2CF877FF8CF8FB7F8942091293830915B
:100270002A3840912B3850912C3898E09093840A7A
:1002800090918E0A91FFFCCFE091A20AF091A30A0F
:1002900090918D0A90FF08C0BF016627672B21F45B
:1002A0002E5F3F4F4F4F5F4F8FBFBF0176956795D2
:1002B000CF01860F911DE62FE695E695762F729574
:1002C0007F70E71BFF0B67FD3196E80FF91FA0E376
:1002D000B3E00E94E30D6E0F7F1F811D911D0895F5
:1002E0008F929F92AF92BF92CF92DF92EF92FF9246
:1002F0004B015C010E9433016B017C01A8EEB3E06D
:10030000A50194010E94E30DC60ED71EE81EF91E3A
:10031000C616D706E806F90618F40E943301F8CF8E
:100320000E9433016C157D058E059F05C8F3FF9073
:10033000EF90DF90CF90BF90AF909F908F900895F7
:100340002FB7F8946091253870912638809127381E
:10035000909128382FBF0895AF92BF92CF92DF922D
:10036000EF92FF920F931F93CF93DF936C017B016A
:100370008B01040F151FEB015E01AE18BF08C017FB
:10038000D10759F06991D601ED91FC910190F0816E
:10039000E02DC6010995892B79F7C501DF91CF9131
:1003A0001F910F91FF90EF90DF90CF90BF90AF9093
:1003B0000895FC01508D418D252F30E0842F90E071
:1003C000821B930B541710F0CF9608950197089550
:1003D000FC0196898789981761F0A789AE0FBF2F16
:1003E000B11D5D968C9197899F5F9F73978B90E06D
:1003F00008958FEF9FEF0895FC01968987899817DC
:1004000031F08789E80FF11D858D90E008958FEF19
:100410009FEF0895FC0196892789892F90E0805CE1
:100420009F4F821B91098F73992708958DE298E35E
:100430000E940A0221E0892B09F420E0822F08950E
:1004400080E090E0892B29F00E94160281110C9423
:1004500000000895CF93DF93EC01E881F9810284D5
:10046000F385E02D0995EC85FD8586818F73868364
:10047000EC85FD8585818F7585838F898E8B1D8A9F
:10048000DF91CF9108958F929F92AF92BF92DF92AA
:10049000EF92FF920F931F93CF93DF93EC014A01EA
:1004A0005B01F22E8D89882339F0E881F98100887B
:1004B000F189E02DCE0109950C8910E0DFB6F894A2
:1004C000EC85FD8586818D7F86831D8AE0902511D0
:1004D00060E078E689E899E0A50194010E94AC0DFE
:1004E000AE2DEE0CBB0BBC5F0E94EE0D7C5F8F4F00
:1004F0009F4FEC85FD852BE09595879577956795C2
:100500002A95D1F760877187EC85FD85F782EC85A8
:10051000FD858681806C8683EC85FD85858180687C
:100520008583909101028B89809589237801EE0C57
:10053000FF1CF701E00FF11FEC0FFD1F9089892BC5
:100540008093010286858C3018F462E00E94FF00DF
:10055000F701E00FF11FEC0FFD1F87858C3018F4B9
:1005600061E00E94A8000E0D1F1DC00FD11F8F85D6
:100570008C3018F461E00E94FF00DFBEDF91CF9164
:100580001F910F91FF90EF90DF90BF90AF909F90E1
:100590008F900895CF93DF93FC01908D818DC4855A
:1005A000D585981306C08D818F7D8D83DF91CF9186
:1005B0000895A18DAE0FBF2FB11DA35ABF4F2C912F
:1005C000818D90E001968F739927818F80E48C83D1
:1005D000A485B58512962C93908D818D9813E6CFC6
:1005E000A485B58515968C9115978F7D15968C935E
:1005F000838D8823D9F2848D80931301138ED6CFF7
:10060000DC011C96ED91FC910FB607FE03C025811D
:1006100025FD04C0248125FD0C94CA020895EF92A3
:10062000FF920F931F93CF93DF93EC0181E08D8BAB
:10063000988D898D98131CC0AC85BD8514968C91BE
:10064000149785FF15C012966C93AC85BD8580E428
:1006500014968C93EC85FD8585818F7D858381E063
:1006600090E0DF91CF911F910F91FF90EF9008954F
:100670008091110180FF08C0809113018C8F8A8DB9
:100680008093130181E08B8FF62E088D10E00F5FB1
:100690001F4F0F731127E02E898D8E1104C0CE01DC
:1006A0000E940003F9CFE88DEC0FFD2FF11DE35AF6
:1006B000FF4FF082088FEC85FD8585818062CECF6B
:1006C000CF93DF93FC0125892223C9F0EC018091AF
:1006D000110180FF08C080911301848F828D809367
:1006E000130181E0838FEC85FD85858185FD03C045
:1006F000848186FD04C0CE010E940003F4CFDF9107
:10070000CF91089581E00895893823E1920710F090
:1007100088E893E1E0910238F0E0EE0FFF1FE1502E
:10072000F446408151814817590720F48FEF809398
:10073000A10608959C01AFEFB0E00E94D40D9A018C
:1007400050E040E00E94AC0D2093A10608959C016A
:10075000293E85E1380710F028EE35E190E081E090
:10076000890FE92FF0E0EE0FFF1FE150F4464081C2
:10077000518142175307D0F0909302381092A1068E
:100780008091A000887F8093A0008091A000E091DC
:100790000238F0E0E650F4469081892B8093A00067
:1007A00061E070E080E090E00C947001982FD7CF6A
:1007B000CF93DF93EC010E94A703CE01DF91CF918D
:1007C0000C94840390E080E00C94D803CF93DF93E3
:1007D000C82FD62F70E060E00E946E008D2F0E941F
:1007E0005E0062E070E08C2F0E946E000E948C0020
:1007F000C82F0E948C0097E0909314089C2FDF91E3
:10080000CF91089562E081E40E94E6039695879572
:100810008C7FBC0190E080E00E949D0C20E030E0E5
:1008200040E05FE30E94900B0E946E0C60930938D9
:1008300070930A3864E081E40E94E60397FD05C0E6
:1008400080930B3890930C38089510920B381092C7
:100850000C380895CF92DF92EF92FF920F931F937F
:10086000CF93DF9361E080E40E94E603811520E1ED
:10087000920708F08EC0809300389093013862E0B0
:1008800080E40E94E603EC01609100387091013829
:1008900090E080E00E949D0C20E030E048EC52E4C3
:1008A0000E94FC0B6B017C01D695C795CC7FBE01E5
:1008B00090E080E00E949D0C9B01AC01C701B60155
:1008C0000E94900B20E030E040E05FE30E94900B3C
:1008D0000E946E0C6B0160930D3870930E3864E0CB
:1008E00080E40E94E60397FD59C080930F389093EF
:1008F0001038A0910F38B091103896010E94D40D95
:100900006C507E4F8F4F9F4F28EE33E040E050E019
:100910000E94AC0D8901209305383093063885E09C
:100920008093060681E08093080680910B0680FF85
:10093000FCCFC0911006D0911106C0930338D0931C
:100940000438093A81E6180720F4C53323E0D207BA
:1009500010F00E94E2030D3B82E0180720F4CA3435
:1009600022E0D20720F061E080E00E94A800043F6E
:100970001140C8F4CC31D240B0F460E080E0DF91A7
:10098000CF911F910F91FF90EF90DF90CF900C943B
:10099000A800109200381092013871CF10920F38D1
:1009A00010921038A6CFDF91CF911F910F91FF9039
:1009B000EF90DF90CF9008951F93CF93DF93162F82
:1009C000EA0170E060E00E946E00812F0E945E00EC
:1009D0008D2F0E945E008C2F0E945E0087E0809326
:1009E0001408DF91CF911F91089580E08F5FE82F69
:1009F000F0E0ED5EF74C90819032C1F330E020E002
:100A00006AE0E82FF0E0ED5EF74C408151E0580FCE
:100A1000413274F0629FC001639F900D11249C01CC
:100A200020533109240F311D47FD3A95852FE9CF19
:100A300020931138309312388F5FE82FF0E0ED5E8D
:100A4000F74C90819032C1F330E020E06AE0E82F6B
:100A5000F0E0ED5EF74C9081992371F08F5F629F1B
:100A6000A001639F500D11249A0120533109290FD1
:100A7000311D97FD3A95EBCF209307383093083816
:100A80000895DC01ED91FC910684F785E02D23E0CB
:100A900030E00994FC0101900020E9F73197AF01A3
:100AA000481B590BBC018DE298E30C94AC018F926A
:100AB0009F92AF92BF920F931F93CF93DF93CDB7C7
:100AC000DEB7A197CDBFDEBF19A2423008F44AE0DD
:100AD0008E010F5D1F4F842E912CB12CA12CA501EE
:100AE00094010E94AC0DE62FB901CA01EA30DCF492
:100AF000E05DD801EE938D01232B242B252B79F774
:100B000090E080E0109719F0CD010E944A05A1966F
:100B1000CDBFDEBFDF91CF911F910F91BF90AF90FE
:100B20009F908F900895E95CE4CF83E59CE90C9455
:100B30004A05CF93DF930E944A05EC0185E59CE9C5
:100B40000E944A058C0F9D1FDF91CF910895BC0133
:100B500090E080E04AE00C945705CF93DF930E9429
:100B6000A705EC0185E59CE90E944A058C0F9D1FB5
:100B7000DF91CF9108951F920F920FB60F9211241B
:100B80002F933F934F935F936F938F939F93AF9365
:100B9000BF938091253890912638A0912738B09145
:100BA000283840912338509124389A01205D3C4FD9
:100BB000283E63E0360728F0285E33400196A11DE9
:100BC000B11D209323383093243880932538909397
:100BD0002638A0932738B0932838809129389091EF
:100BE0002A38A0912B38B0912C380196A11DB11D47
:100BF0008093293890932A38A0932B38B0932C38BF
:100C000081E080938D0ABF91AF919F918F916F91F9
:100C10005F914F913F912F910F900FBE0F901F90BA
:100C200018951F920F920FB60F9211242F933F9396
:100C30004F935F936F937F938F939F93AF93BF93E4
:100C4000EF93FF938DE298E30E94CA02FF91EF9128
:100C5000BF91AF919F918F917F916F915F914F91D4
:100C60003F912F910F900FBE0F901F9018951F92DC
:100C70000F920FB60F9211242F938F939F93EF93A0
:100C8000FF93E0913938F0913A38818181FD1BC0A2
:100C90009081809143388F5F8F7320914438821701
:100CA00041F0E0914338F0E0E35DF74C958F80939D
:100CB0004338FF91EF919F918F912F910F900FBE2D
:100CC0000F901F9018958081F4CFCF93DF93CDB70D
:100CD000DEB76697CDBFDEBF88ED90E084BF90930E
:100CE000610083E5809302068EE080930506809183
:100CF000000681608093000611E01093030A8EEFD6
:100D00008093260A8093270A80E88093280A80939C
:100D10002A0A80932C0A8093290A80932B0A8093B5
:100D20002D0A9BE09093000A2DEF31E02093AE0A4C
:100D30003093AF0A10938C0A1092810A8093820A32
:100D400081E18093800A789461E080E00E94FF0056
:100D500061E083E00E94FF0060E081E00E94FF000C
:100D600060E083E00E94A80060E080E00E94A800AC
:100D700040E052EC61E070E08DE298E30E944105B2
:100D800062E086E00E94FF0062E087E00E94FF00D0
:100D900083E180931608109313081093150880912F
:100DA000A0008093A0008091A10081608093A100A9
:100DB00061E070E080E090E00E9470018091160494
:100DC000887F8093160480911604846080931604B3
:100DD00080911604877F809316041092A10681ECFF
:100DE0008093A00647E656E260E080E40E94DC04BF
:100DF00040E054E165E080E40E94DC0447E65EE206
:100E000060E081E40E94DC0440E054E165E081E4BC
:100E10000E94DC041E012BE0220E311CE3E1F8E30A
:100E2000119238E3E332F307D9F710E08DE298E34B
:100E30000E940A02892B09F43BC08DE298E30E94CC
:100E4000E80191E0910FE12FF0E0ED5EF74C808337
:100E5000192F8A3011F0103148F3E12FF0E0EE5EE7
:100E6000F74C108261E083E00E94A800E091133803
:100E7000E256E53108F00FC40E2E000CFF0BED5BBF
:100E8000F84F0C94CE0D180A63074B0B05099B090C
:100E90008B084B0B5B074B0B4B0B2C08C10A4B0B06
:100EA0004B0B4B0B4B0BB80A5C0B290B4B0B600726
:100EB0000E942A04D0CF88E59CE90E949905EBC3E3
:100EC00087E69CE9FACF0E94F50480911138909151
:100ED00012380E94D80369E170E080E090E00E943F
:100EE00070010E94A0016B017C01209107383091B4
:100EF0000838A8EEB3E00E94D40D9B01AC012C0D84
:100F00003D1D4E1D5F1D2B8B3C8B4D8B5E8B1F86BD
:100F1000188A198A1A8A1B861C861D861E86412CF1
:100F2000512C3201812C912C540110E00E94A0011F
:100F30002B893C894D895E89621773078407950761
:100F400008F016C30E942A040E940204809105380A
:100F500090910638893A914608F00AC38091033887
:100F6000909104388533934008F002C380910D3886
:100F700090910E38880E991EA11CB11C80910F38DB
:100F800090911038480E591E611C711C80910938CF
:100F900090910A382B853C854D855E85280F391F39
:100FA000411D511D2B873C874D875E8780910B38F3
:100FB00090910C382F85388949895A89280F391F13
:100FC000411D511D2F87388B498B5A8B1F5FC12EB6
:100FD000D12CF12CE12CC301B201A70196010E9492
:100FE000AC0DCA01B9014AE00E9457050E9495055F
:100FF000C501B401A70196010E94AC0DCA01B90157
:101000004AE00E9457050E9495056F857889898975
:101010009A89A70196010E94AC0DCA01B9014AE064
:101020000E9457050E9495056B857C858D859E8560
:10103000A70196010E94AC0DCA01B9014AE00E94C5
:10104000570585E59CE90E944A0564E670E080E06A
:1010500090E00E9470016ACF0E94F5041092A106F0
:10106000E0900738F090083800911138109112384C
:10107000083833E1130710F007E813E1C8010E94B4
:10108000A703DD24D394DD2009F472C20E942A0450
:101090008091053890910638893A914608F068C2E7
:1010A00080910338909104388533934008F060C2F2
:1010B00080910D3890910E388E159F0508F458C216
:1010C000CC24C394CD0C80910F3890911038081720
:1010D000190708F44DC2D092A10680910F38909163
:1010E00010380E94A7050E94950580910D389091B7
:1010F0000E380E94A7050E949505809105389091B1
:1011000006380E94AD0569E170E080E090E00E9441
:101110007001DC2CB8CF0E94F504A0901138B0907B
:1011200012388AE0E0EFFBE9DE01119601900D92A2
:101130008A95E1F747E45CE260E080E40E94DC0429
:10114000C5010E94A7030E94A0012B013C017C0164
:101150006B0184E6C80ED11CE11CF11C8E010F5FEF
:101160001F4FF80121918F012A9DC0012B9D900DE9
:1011700011246AE070E00E94980DCB010E94840364
:101180000E94A0016C157D058E059F0550F50E94FB
:101190002A048091053890910638893A914608F5DD
:1011A000809103389091043885339340D0F40E94A5
:1011B000A00164197509860997094AE00E9457053C
:1011C0000E94950580910F38909110380E94A705D4
:1011D0000E94950580910D3890910E380E94AD05C2
:1011E000CFCF34E6C30ED11CE11CF11C2016310612
:1011F00009F0B7CF0E94E20347E656E260E080E4E0
:101200000E94DC048BE69CE958CE0E94F504109203
:10121000A106C0900738D09008380091113810917D
:101220001238083843E1140710F007E813E1C80149
:101230000E94A703EE24E394EE2009F499C10E94D2
:101240002A040E9402048091053890910638893A58
:10125000914608F08DC18091033890910438853310
:10126000934008F085C180910D3890910E388C150F
:101270009D0508F47DC1FF24F394FE0C80910F3886
:10128000909110380817190708F472C1E092A1066E
:10129000609105387091063890E080E00E949D0CC6
:1012A00020E030E04AE754E40E942B0D4B015C0142
:1012B0002091093830910A38A0910B38B0910C3840
:1012C0000E94D40D6C507E4F8F4F9F4F28EE33E01D
:1012D00040E050E00E94AC0DB90190E080E00E9437
:1012E0009D0C9B01AC01C501B4010E94FC0B20E0E8
:1012F00030E040E05FE30E94900B0E946E0C4B01D7
:1013000080910F38909110380E94A7050E94950592
:1013100080910D3890910E380E94A7050E94950586
:10132000C4010E94AD0569E170E080E090E00E9498
:101330007001EF2C81CF0E94F5041092A106A090BD
:101340000738B090083800911138109112380838D9
:10135000F3E11F0710F007E813E1C8010E94A7039B
:1013600099249394992009F403C10E942A0480913E
:10137000053890910638893A914608F0F9C0809175
:101380000338909104388533934008F0F1C0809180
:101390000D3890910E388A159B0508F4E9C08091AC
:1013A0000F38909110380817190708F4E1C046E487
:1013B0005CE260E080E40E94DC0488248A9430E9E6
:1013C000E32E35E6F32ED12CC12C62E080E40E949E
:1013D000E603969587958C7F80930D3890930E3811
:1013E000C816D90608F46C018E159F0508F47C0117
:1013F0008A948110EACF47E656E260E080E40E94DA
:10140000DC049092A10680910F38909110380E94D0
:10141000A7050E949505C6018E199F090E94AD057A
:1014200069E170E080E090E00E94700193949ACFAF
:101430000E94F504E0901138F090123800910738BE
:10144000109108380E94A0012B013C015C014B0166
:1014500048EE840E43E0941EA11CB11CC701893BD9
:101460005BE0950710F088EB9BE00E94D80369E1F0
:1014700070E080E090E00E947001C12CD12C7601D8
:101480008091A106882309F473C00E942A048091E8
:10149000053890910638893A914608F069C08091E4
:1014A0000338909104388533934008F061C08DE291
:1014B00098E30E940A02892B09F052C080910D38EE
:1014C00090910E388017910708F455C00E94A00132
:1014D000641975098609970928EE33E040E050E069
:1014E0000E94AC0DCA01B9014AE00E9457050E9452
:1014F000950580910F38909110380E94A7050E94A1
:10150000950580910D3890910E380E94A7050E9494
:101510009505C701B60120E13EE040E050E00E94A1
:10152000AC0DCA01B9014AE00E94570585E59CE966
:101530000E944A050E94A001681579058A059B054D
:10154000C8F328EE820E23E0921EA11CB11C8091EC
:101550000F3890911038C80ED91EE11CF11C90CFA5
:101560008DE298E30E94E8018837910509F0A6CF43
:101570000E94E20347CE8091A10681508093A1068C
:10158000A5CF0E94F5040E94E203C0901138D090CC
:10159000123800910738109108380E94A0012B01E1
:1015A0003C01F12CE12C5C014B018C0C9D1CAE1C10
:1015B000BF1C9801A8EEB3E00E94D40D9B01AC01C2
:1015C000240D351D461D571D2B873C874D875E8793
:1015D0000E94A0012B853C854D855E852617370727
:1015E0004807590708F40ECE8DE298E30E940A02DC
:1015F000892B39F50E9402040E94A0016419750923
:10160000860997094AE00E9457050E949505809136
:101610000B3890910C380E94A7050E949505809187
:10162000093890910A380E94AD050E94A001681502
:1016300079058A059B05C8F38C0C9D1CAE1CBF1C4C
:10164000C7CF8DE298E30E94E8018837910591F6B3
:10165000D9CD0E942A040E94020480910F389091F3
:1016600010380E94A7050E94950580910D38909131
:101670000E380E94A7050E94950580910B38909125
:101680000C380E94A7050E94950580910938909119
:101690000A380E94AD0560E083E00E94A80080E067
:1016A00090E0892B09F4BACB0E941602882309F432
:1016B000B5CB0E940000B2CB0E94F5048091113896
:1016C000909112380E94D8039DCDEDE2F8E312828A
:1016D000138288EE93E0A0E0B0E084839583A68334
:1016E000B7838DE09CE98083918380E098E08487D4
:1016F000958784E0868785E08787108A89E0818BDB
:1017000088E0828B81E0838B148A158A168A178A77
:10171000108E118E8CE1828F138E148E0895505886
:10172000BB27AA270E94A70B0C94F10C0E94E30C84
:1017300038F00E94EA0C20F039F49F3F19F426F4A7
:101740000C94E00C0EF4E095E7FB0C94DA0CE92F16
:101750000E94020D58F3BA176207730784079507B2
:1017600020F079F4A6F50C94240D0EF4E0950B2EE0
:10177000BA2FA02D0B01B90190010C01CA01A001E3
:101780001124FF27591B99F0593F50F4503E68F13E
:101790001A16F040A22F232F342F4427585FF3CF7F
:1017A000469537952795A795F0405395C9F77EF450
:1017B0001F16BA0B620B730B840BBAF09150A1F099
:1017C000FF0FBB1F661F771F881FC2F70EC0BA0F1F
:1017D000621F731F841F48F4879577956795B795A7
:1017E000F7959E3F08F0B0CF9395880F08F09927A2
:1017F000EE0F9795879508950E94100C0C94F10CAC
:101800000E94EA0C58F00E94E30C40F029F45F3F7C
:1018100029F00C94DA0C51110C94250D0C94E00C69
:101820000E94020D68F39923B1F3552391F3951BA0
:10183000550BBB27AA2762177307840738F09F5FF1
:101840005F4F220F331F441FAA1FA9F335D00E2E5E
:101850003AF0E0E832D091505040E695001CCAF7CB
:101860002BD0FE2F29D0660F771F881FBB1F26178E
:1018700037074807AB07B0E809F0BB0B802DBF0165
:10188000FF2793585F4F3AF09E3F510578F00C9434
:10189000DA0C0C94250D5F3FE4F3983ED4F3869563
:1018A00077956795B795F7959F5FC9F7880F911D55
:1018B0009695879597F90895E1E0660F771F881F41
:1018C000BB1F621773078407BA0720F0621B730BF4
:1018D000840BBA0BEE1F88F7E09508950E940A0D5D
:1018E00088F09F5798F0B92F9927B751B0F0E1F0E1
:1018F000660F771F881F991F1AF0BA95C9F714C091
:10190000B13091F00E94240DB1E008950C94240DA3
:10191000672F782F8827B85F39F0B93FCCF38695C9
:1019200077956795B395D9F73EF490958095709526
:1019300061957F4F8F4F9F4F0895E89409C097FBA3
:101940003EF490958095709561957F4F8F4F9F4F96
:101950009923A9F0F92F96E9BB279395F6958795DA
:1019600077956795B795F111F8CFFAF4BB0F11F49D
:1019700060FF1BC06F5F7F4F8F4F9F4F16C0882344
:1019800011F096E911C0772321F09EE8872F762F7A
:1019900005C0662371F096E8862F70E060E02AF0BB
:1019A0009A95660F771F881FDAF7880F96958795A7
:1019B00097F9089597F99F6780E870E060E00895CF
:1019C0009FEF80EC089500240A9416161706180657
:1019D0000906089500240A94121613061406050633
:1019E0000895092E0394000C11F4882352F0BB0FC4
:1019F00040F4BF2B11F460FF04C06F5F7F4F8F4F27
:101A00009F4F089557FD9058440F551F59F05F3F61
:101A100071F04795880F97FB991F61F09F3F79F010
:101A200087950895121613061406551FF2CF469592
:101A3000F1DF08C0161617061806991FF1CF869514
:101A40007105610508940895E894BB2766277727F8
:101A5000CB0197F908950E943E0D0C94F10C0E9461
:101A6000E30C38F00E94EA0C20F0952311F00C945E
:101A7000DA0C0C94E00C11240C94250D0E94020D3C
:101A800070F3959FC1F3950F50E0551F629FF001D1
:101A9000729FBB27F00DB11D639FAA27F00DB11DEA
:101AA000AA1F649F6627B00DA11D661F829F222773
:101AB000B00DA11D621F739FB00DA11D621F839FFA
:101AC000A00D611D221F749F3327A00D611D231FD0
:101AD000849F600D211D822F762F6A2F11249F571E
:101AE00050409AF0F1F088234AF0EE0FFF1FBB1F21
:101AF000661F771F881F91505040A9F79E3F5105E0
:101B000080F00C94DA0C0C94250D5F3FE4F3983EC2
:101B1000D4F3869577956795B795F795E7959F5F89
:101B2000C1F7FE2B880F911D9695879597F908951B
:101B3000AA1BBB1B51E107C0AA1FBB1FA617B707F3
:101B400010F0A61BB70B881F991F5A95A9F780950F
:101B50009095BC01CD010895A1E21A2EAA1BBB1BD2
:101B6000FD010DC0AA1FBB1FEE1FFF1FA217B30769
:101B7000E407F50720F0A21BB30BE40BF50B661F7F
:101B8000771F881F991F1A9469F760957095809543
:101B900090959B01AC01BD01CF010895EE0FFF1F91
:101BA0000590F491E02D0994A29FB001B39FC0016C
:101BB000A39F700D811D1124911DB29F700D811D79
:101BC0001124911D08950E94D40DA59F900DB49FDE
:101BD000900DA49F800D911D11240895B7FF0C94C2
:101BE000E30D0E94E30D821B930B0895F894FFCF41
:101BF000000205070A0A05000A000001040203CDDD
:101C0000029A05A407BC0CE815000000000F03AC05
:101C1000010A02E801FC016003410543022A028235
:101C200003D90110108000001010100000100004F3
:101C30000506070302010001020300000000000185
:101C40000101010000000010204080080402010290
:101C500004080109000D0A00506F77657220416E7B
:101C6000616C797A657200302E3600444F4E450023
:00000001FF
