:100000001AC033C032C031C030C02FC02EC02DC086
:100010002CC02BC02AC029C028C027C048C525C075
:1000200024C023C022C021C020C01FC0BBC595C5AD
:100030001CC01BC0710A11241FBECFEFCDBFDFE370
:10004000DEBF2EE3A0E0BEE301C01D92AC36B207D6
:10005000E1F710E0CBE1D0E003C02197FE01C6DC60
:10006000CA31D107D1F7CCD5C7CCCACF90911508EA
:1000700096FFFCCF8093180882E08093140880914B
:1000800015088295817091E08927089590E06115A7
:10009000710529F060936A3E70936B3E91E0880F82
:1000A000892B8093170880911508807CE1F380915B
:1000B000150883FD07C0809115088295817091E035
:1000C0008927089580E0089580916A3E90916B3E63
:1000D000009729F0019780936A3E90936B3E809140
:1000E000150887FFFCCF8091180820916A3E309157
:1000F0006B3E92E0232B09F496E090931408089548
:10010000282F30E0F901ED5AF54640814F3F09F4C0
:1001100048C08C3050F4F901E15DF54680818823B8
:1001200021F0803191F0803821F1F901E95BF54649
:10013000E08180E2E89FF0011124FC5F808184234C
:10014000E9F0611119C046830895F901E55CF546AF
:100150005081533008F05F5F7091010A81E090E0B8
:1001600001C0880F5A95EAF7809587238093010A8A
:10017000DCCF10928006D9CF45830895255C3546A3
:10018000D9018C91309771F08F3F61F07096E80F34
:10019000F11D9FB7F8948081611107C0877F80832C
:1001A0009FBF0895F0E0E0E0F4CF8860F8CFCF93F0
:1001B000DF9390E0FC01ED5AF54620812F3F69F076
:1001C000FC01E95BF546A08130E2A39FD001112438
:1001D000BC5F613029F411962C93DF91CF91089583
:1001E000855C9546EC01E881EF3F81F0CD014096BA
:1001F000E80FF92FF11D9FB7F89412962C93808188
:10020000623039F4886080839FBFE7CFF0E0E0E0A0
:10021000F2CF877FF8CF8FB7F8942091293E3091A5
:100220002A3E40912B3E50912C3E98E09093840AB8
:1002300090918E0A91FFFCCFE091A20AF091A30A5F
:1002400090918D0A90FF08C0BF016627672B21F4AB
:100250002E5F3F4F4F4F5F4F8FBFBF017695679522
:10026000CF01860F911DE62FE695E695762F7295C4
:100270007F70E71BFF0B67FD3196E80FF91FA0E3C6
:10028000B3E0A4DB6E0F7F1F811D911D08958F9237
:100290009F92AF92BF92CF92DF92EF92FF924B016B
:1002A0005C01B9DF6B017C01A8EEB3E0A50194010C
:1002B0008DDBC60ED71EE81EF91EC616D706E80649
:1002C000F90610F4A8DFF9CFA6DF6C157D058E05C1
:1002D0009F05D0F3FF90EF90DF90CF90BF90AF904D
:1002E0009F908F9008952FB7F8946091253E70915C
:1002F000263E8091273E9091283E2FBF0895AF92D1
:10030000BF92CF92DF92EF92FF920F931F93CF9302
:10031000DF936C017B018B01040F151FEB015E0164
:10032000AE18BF08C017D10759F06991D601ED91F9
:10033000FC910190F081E02DC6010995892B79F798
:10034000C501DF91CF911F910F91FF90EF90DF904A
:10035000CF90BF90AF900895FC01508D418D252F17
:1003600030E0842F90E0821B930B541710F00F960F
:10037000089501970895FC0196898789981761F07F
:10038000A789AE0FBF2FB11D5D968C9197899F5F96
:100390009F70978B90E008958FEF9FEF0895FC0179
:1003A00096898789981731F08789E80FF11D858D27
:1003B00090E008958FEF9FEF0895FC0196892789BB
:1003C000892F90E04096821B91098F70992708959C
:1003D0008DE29EE3F2DF21E0892B09F420E0822FF9
:1003E000089580E090E0892B19F0F2DF811108CEAA
:1003F0000895CF93DF93EC01E881F9810284F385BE
:10040000E02D0995EC85FD8586818F738683EC85CB
:10041000FD8585818F7585838F898E8B1D8ADF9100
:10042000CF9108958F929F92AF92BF92DF92EF92F9
:10043000FF920F931F93CF93DF93EC014A015B016F
:10044000F22E8D89882339F0E881F9810088F189BD
:10045000E02DCE0109950C8910E0DFB6F894EC850B
:10046000FD8586818D7F86831D8AE090251160E061
:1004700078E689E899E0A50194017ADAAE2DEE0CD0
:10048000BB0BBC5FADDA7C5F8F4F9F4FEC85FD856A
:100490002BE095958795779567952A95D1F7608795
:1004A0007187EC85FD85F782EC85FD858681806C02
:1004B0008683EC85FD858581806885839091010226
:1004C0008B89809589237801EE0CFF1CF701E00FE2
:1004D000F11FEC0FFD1F9089892B80930102868507
:1004E0008C3010F462E063DEF701E00FF11FEC0FD7
:1004F000FD1F87858C3010F461E002DE0E0D1F1D9C
:10050000C00FD11F8F858C3010F461E050DEDFBE4C
:10051000DF91CF911F910F91FF90EF90DF90BF90EF
:10052000AF909F908F900895CF93DF93FC01908DB3
:10053000818DA485B585981309C015968C91159762
:100540008F7D15968C93DF91CF910895C18DCE0F3D
:10055000DF2FD11D2DA5818D90E001968F709927F9
:10056000818F80E414968C93A485B58512962C9384
:10057000908D818D9813E7CFA485B58515968C91C4
:1005800015978F7D15968C93838D8823E1F2848D4A
:1005900080931301138ED7CFDC011C96ED91FC9153
:1005A0000FB607FE03C0258125FD03C0248125FD6C
:1005B000BBCF0895EF92FF920F931F93CF93DF93DA
:1005C000EC0181E08D8B988D898D98131CC0AC85D2
:1005D000BD8514968C91149785FF15C012966C9367
:1005E000AC85BD8580E414968C93EC85FD85858172
:1005F0008F7D858381E090E0DF91CF911F910F91F6
:10060000FF90EF9008958091110180FF08C08091C4
:1006100013018C8F8A8D8093130181E08B8FF62ECE
:10062000088D10E00F5F1F4F0F701127E02E898D8E
:100630008E1103C0CE01B0DFFACFE88DEC0FFD2F95
:10064000F11DF5A6088FEC85FD8585818062D1CFEF
:10065000CF93DF93FC0125892223C1F0EC01809127
:10066000110180FF08C080911301848F828D8093D7
:10067000130181E0838FEC85FD85858185FD03C0B5
:10068000848186FD03C0CE0187DFF5CFDF91CF9156
:10069000089581E00895893823E1920710F088E8F1
:1006A00093E1E091023EF0E0EE0FFF1FE55FF546BB
:1006B000408151814817590720F48FEF80938106BC
:1006C00008959C01AFEFB0E075D99A0150E040E089
:1006D0004FD92093810608959C01293E85E1380772
:1006E00010F028EE35E190E081E0890FE92FF0E08D
:1006F000EE0FFF1FE55FF54640815181421753071A
:10070000C8F09093023E109281068091A000887FED
:100710008093A0008091A000E091023EF0E0EA5FAB
:10072000F5469081892B8093A00061E070E080E025
:1007300090E0ADCD982FD8CFCF93DF93EC01CCDFF5
:10074000CE01DF91CF91A7CF90E080E0F5CFCF939E
:10075000DF93C82FD62F70E060E098DC8D2F86DC09
:1007600062E070E08C2F92DCAFDCC82FADDC97E04C
:10077000909314089C2FDF91CF91089562E081E45B
:10078000E6DF969587958C7FBC0190E080E0E1D70D
:1007900020E030E040E05FE3CFD6ACD76093093E85
:1007A00070930A3E64E081E4D2DF97FD05C0809338
:1007B0000B3E90930C3E089510920B3E10920C3E0F
:1007C0000895CF92DF92EF92FF920F931F93CF93F2
:1007D000DF9361E080E4BBDF811520E1920708F040
:1007E00081C08093003E9093013E62E080E4AFDFE1
:1007F000EC016091003E7091013E90E080E0A9D74D
:1008000020E030E048EC52E403D76B017C01D69540
:10081000C795CC7FBE0190E080E09BD79B01AC01E7
:10082000C701B60189D620E030E040E05FE384D61E
:1008300061D76B0160930D3E70930E3E64E080E4DF
:1008400086DF97FD54C080930F3E9093103EA09199
:100850000F3EB091103E9601ADD86C507E4F8F4F39
:100860009F4F28EE33E040E050E082D8890120938A
:10087000053E3093063E85E08093060681E0809336
:10088000080680910B0680FFFCCFC0911006D09126
:100890001106C093033ED093043E093A81E618073F
:1008A00020F4C53323E0D20708F04EDF0D3B82E091
:1008B000180720F4CA3422E0D20718F061E080E083
:1008C0001FDC043F1140C0F4CC31D240A8F460E0FA
:1008D00080E0DF91CF911F910F91FF90EF90DF901B
:1008E000CF900ECC1092003E1092013E7ECF10921F
:1008F0000F3E1092103EABCFDF91CF911F910F9121
:10090000FF90EF90DF90CF9008951F93CF93DF93E8
:10091000162FEA0170E060E0B9DB812FA7DB8D2F95
:10092000A5DB8C2FA3DB87E080931408DF91CF91A8
:100930001F91089580E08F5FE82FF0E0ED5EF14CAD
:1009400090819032C1F330E020E06AE0E82FF0E0DF
:10095000ED5EF14C408151E0580F413274F0629FDE
:10096000C001639F900D11249C0120533109240F75
:10097000311D47FD3A95852FE9CF2093113E3093E5
:10098000123E8F5FE82FF0E0ED5EF14C90819032E7
:10099000C1F330E020E06AE0E82FF0E0ED5EF14CDA
:1009A0009081992371F08F5F629FA001639F500D2A
:1009B00011249A0120533109290F311D97FD3A95D1
:1009C000EBCF2093073E3093083E0895DC01ED9174
:1009D000FC910684F785E02D23E030E00994FC01CA
:1009E00001900020E9F73197AF01481B590BBC017A
:1009F0008DE29EE384CC8F929F92AF92BF920F9331
:100A00001F93CF93DF93CDB7DEB7A197CDBFDEBFE6
:100A100019A2423008F44AE08E010F5D1F4F842E68
:100A2000912CB12CA12CA5019401A2D7E62FB901DC
:100A3000CA01EA30D4F4E05DD801EE938D01232B96
:100A4000242B252B81F790E080E0109711F0CD0149
:100A5000C6DFA196CDBFDEBFDF91CF911F910F9171
:100A6000BF90AF909F908F900895E95CE5CF8FE5A0
:100A70009AE9B5CFCF93DF93B2DFEC0181E69AE933
:100A8000AEDF8C0F9D1FDF91CF910895BC0190E0E8
:100A900080E04AE0B0CFCF93DF93F8DFEC0181E64E
:100AA0009AE99DDF8C0F9D1FDF91CF9108951F92D2
:100AB0000F920FB60F9211242F933F934F935F9392
:100AC0006F938F939F93AF93BF938091253E9091A7
:100AD000263EA091273EB091283E4091233E509162
:100AE000243E9A01205D3C4F283E63E0360728F003
:100AF000285E33400196A11DB11D2093233E309303
:100B0000243E8093253E9093263EA093273EB093AB
:100B1000283E8091293E90912A3EA0912B3EB09193
:100B20002C3E0196A11DB11D8093293E90932A3E33
:100B3000A0932B3EB0932C3E81E080938D0ABF9111
:100B4000AF919F918F916F915F914F913F912F91B5
:100B50000F900FBE0F901F9018951F920F920FB617
:100B60000F9211242F933F934F935F936F937F9333
:100B70008F939F93AF93BF93EF93FF938DE29EE389
:100B8000D3DCFF91EF91BF91AF919F918F917F91B6
:100B90006F915F914F913F912F910F900FBE0F90EA
:100BA0001F9018951F920F920FB60F9211242F933A
:100BB0008F939F93EF93FF93E091393EF0913A3EEC
:100BC000818181FD1BC090818091433E8F5F8F703A
:100BD0002091443E821741F0E091433EF0E0E35D16
:100BE000F14C958F8093433EFF91EF919F918F91B0
:100BF0002F910F900FBE0F901F9018958081F4CF0A
:100C0000CF93DF93CDB7DEB76697CDBFDEBF88ED5C
:100C100090E084BF9093610083E5809302068EE0AC
:100C2000809305068091000681608093000611E0A4
:100C30001093030A8EEF8093260A8093270A80E898
:100C40008093280A80932A0A80932C0A8093290A89
:100C500080932B0A80932D0A9BE09093000A2DEF3E
:100C600031E02093AE0A3093AF0A10938C0A1092B1
:100C7000810A8093820A81E18093800A789461E0FE
:100C800080E095DA61E083E092DA60E081E08FDA7B
:100C900060E083E035DA60E080E032DA40E052EC98
:100CA00061E070E08DE29EE391DE62E086E07FDA53
:100CB00062E087E07CDA83E18093160810931308E2
:100CC000109315088091A0008093A0008091A1004E
:100CD00081608093A10061E070E080E090E0D7DA6D
:100CE00080911604887F8093160480911604846096
:100CF0008093160480911604877F809316041092C7
:100D0000810681EC8093800647E656E260E080E44D
:100D1000FCDD40E054E165E080E4F7DD47E65EE2BB
:100D200060E081E4F2DD40E054E165E081E4EDDD86
:100D30001E012BE0220E311CE3E1FEE311923EE3A3
:100D4000E332F307D9F710E08DE29EE336DB892B1F
:100D500009F438C08DE29EE30EDB91E0910FE12FA4
:100D6000F0E0ED5EF14C8083192F8A3011F01031E4
:100D700058F3E12FF0E0EE5EF14C108261E083E089
:100D8000BFD9E091133EE256E53108F095C30E2E2F
:100D9000000CFF0BE353F94F099487C21CC08CC3AE
:100DA0008DC110C222C188C30FC086C385C3C7C00E
:100DB00011C382C381C380C37FC304C38BC363C316
:100DC0007BC306C0FEDCD3CF84E69AE953DE74C34E
:100DD00083E79AE9FBCFAEDD8091113E9091123E00
:100DE000ABDC69E170E080E090E051DA7CDA6B0125
:100DF0007C012091073E3091083EA8EEB3E0DAD5A1
:100E00009B01AC012C0D3D1D4E1D5F1D2B8B3C8BA2
:100E10004D8B5E8B1F86188A198A1A8A1B861C8640
:100E20001D861E86412C512C3201812C912C54019F
:100E300010E059DA2B893C894D895E896217730766
:100E40008407950708F0BEC2BCDC98DC8091053EA3
:100E50009091063E893A914608F0B4C28091033ED3
:100E60009091043E8533934008F0ACC280910D3ED2
:100E700090910E3E880E991EA11CB11C80910F3ED0
:100E80009091103E480E591E611C711C8091093EC4
:100E900090910A3E2B853C854D855E85280F391F34
:100EA000411D511D2B873C874D875E8780910B3EEE
:100EB00090910C3E2F85388949895A89280F391F0E
:100EC000411D511D2F87388B498B5A8B1F5FC12EB7
:100ED000D12CF12CE12CC301B201A701960148D518
:100EE000CA01B9014AE087DDC2DDC501B401A7012D
:100EF00096013ED5CA01B9014AE07DDDB8DD6F85B6
:100F0000788989899A89A701960132D5CA01B901E0
:100F10004AE071DDACDD6B857C858D859E85A70102
:100F2000960126D5CA01B9014AE065DD81E69AE954
:100F300056DD64E670E080E090E0A9D97ACFFADC73
:100F400010928106E090073EF090083E0091113E1D
:100F50001091123E083833E1130710F007E813E14F
:100F6000C801BADBDD24D394DD2009F42BC229DCCF
:100F70008091053E9091063E893A914608F022C242
:100F80008091033E9091043E8533934008F01AC24D
:100F900080910D3E90910E3E8E159F0508F412C271
:100FA000CC24C394CD0C80910F3E9091103E081735
:100FB000190708F407C2D092810680910F3E9091E4
:100FC000103E64DD54DD80910D3E90910E3E5EDD5D
:100FD0004EDD8091053E9091063E5DDD69E170E059
:100FE00080E090E054D9DC2CBFCFA4DCA090113E6F
:100FF000B090123E8AE0ECEFF9E9DE011196019023
:101000000D928A95E1F747E45CE260E080E47DDCE4
:10101000C50162DB68D92B013C017C016B0184E6D0
:10102000C80ED11CE11CF11C8E010F5F1F4FF8018F
:1010300021918F012A9DC0012B9D900D11246AE002
:1010400070E082D4CB0127DB4ED96C157D058E056F
:101050009F0518F5B6DB8091053E9091063E893AD2
:101060009146D8F48091033E9091043E853393409D
:10107000A0F439D964197509860997094AE0BBDCDF
:10108000F6DC80910F3E9091103E00DDF0DC809107
:101090000D3E90910E3EFFDCD7CF34E6C30ED11C3F
:1010A000E11CF11C2016310611F64EDB47E656E234
:1010B00060E080E42ADC87E79AE988CE3BDC109286
:1010C0008106C090073ED090083E0091113E1091DD
:1010D000123E083843E1140710F007E813E1C80195
:1010E000FBDAEE24E394EE2009F46CC16ADB46DB04
:1010F0008091053E9091063E893A914608F062C182
:101100008091033E9091043E8533934008F05AC18C
:1011100080910D3E90910E3E8C159D0508F452C1B4
:10112000FF24F394FE0C80910F3E9091103E08171F
:10113000190708F447C1E09281066091053E70915D
:10114000063E90E080E005D320E030E04AE754E43A
:101150008ED34B015C012091093E30910A3EA09153
:101160000B3EB0910C3E26D46C507E4F8F4F9F4F5C
:1011700028EE33E040E050E0FBD3B90190E080E09E
:10118000E8D29B01AC01C501B40142D220E030E0BD
:1011900040E05FE3D1D1AED24B0180910F3E909100
:1011A000103E74DC64DC80910D3E90910E3E6EDC4E
:1011B0005EDCC40170DC69E170E080E090E067D83B
:1011C000EF2C91CFB7DB10928106A090073EB09034
:1011D000083E0091113E1091123E0838F3E11F07BE
:1011E00010F007E813E1C80177DA99249394992065
:1011F00009F4E8C0E6DA8091053E9091063E893A0E
:10120000914608F0DFC08091033E9091043E853303
:10121000934008F0D7C080910D3E90910E3E8A1504
:101220009B0508F4CFC080910F3E9091103E0817A7
:10123000190708F4C7C046E45CE260E080E465DBBF
:1012400088248A9430E9E32E35E6F32ED12CC12C84
:1012500062E080E47CDA969587958C7F80930D3EE2
:1012600090930E3EC816D90608F46C018E159F05A2
:1012700008F47C018A948110EBCF47E656E260E0E7
:1012800080E443DB9092810680910F3E9091103E66
:10129000FDDBEDDBC6018E199F09FDDB69E170E026
:1012A00080E090E0F4D79394A2CF44DBE090113E2D
:1012B000F090123E0091073E1091083E14D82B0189
:1012C0003C015C014B0148EE840E43E0941EA11CDE
:1012D000B11CC701893B5BE0950710F088EB9BE0F0
:1012E0002BDA69E170E080E090E0D1D7C12CD12CFD
:1012F000760180918106882309F464C062DA8091C6
:10130000053E9091063E893A914608F05BC0809177
:10131000033E9091043E8533934008F053C08DE224
:101320009EE34BD8892B09F046C080910D3E9091E9
:101330000E3E8017910708F447C0D5D76419750988
:101340008609970928EE33E040E050E011D3CA0146
:10135000B9014AE050DB8BDB80910F3E9091103E4B
:1013600095DB85DB80910D3E90910E3E8FDB7FDB20
:10137000C701B60120E13EE040E050E0F9D2CA01E9
:10138000B9014AE038DB81E69AE929DBACD7681578
:1013900079058A059B05D0F328EE820E23E0921E84
:1013A000A11CB11C80910F3E9091103EC80ED91E19
:1013B000E11CF11C9ECF8DE29EE3DDD788379105BD
:1013C00009F0B3CFC1D977CE809181068150809347
:1013D0008106B3CFAFDAB8D9C090113ED090123E9B
:1013E0000091073E1091083E7ED72B013C01F12C65
:1013F000E12C5C014B018C0C9D1CAE1CBF1C9801A8
:10140000A8EEB3E0D7D29B01AC01240D351D461DDB
:10141000571D2B873C874D875E8765D72B853C857D
:101420004D855E85261737074807590708F443CED0
:101430008DE29EE3C2D7892BF9F4A0D954D7641961
:101440007509860997094AE0D6DA11DB80910B3ECF
:1014500090910C3E1BDB0BDB8091093E90910A3E84
:101460001ADB41D7681579058A059B05D0F38C0CEA
:101470009D1CAE1CBF1CD1CF8DE29EE37CD788376C
:101480009105D9F618CE9DD979D980910F3E9091CA
:10149000103EFCDAECDA80910D3E90910E3EF6DAC9
:1014A000E6DA80910B3E90910C3EF0DAE0DA809122
:1014B000093E90910A3EEFDA60E083E021D680E0B9
:1014C00090E0892B09F438CC83D7882309F434CCF5
:1014D00097D532CC2FDA8091113E9091123E2CD9C3
:1014E000EACDEDE2FEE31282138288EE93E0A0E003
:1014F000B0E084839583A683B78389E19AE98083EA
:10150000918380E098E08487958784E0868785E0F2
:101510008787108A89E0818B88E0828B81E0838BCA
:10152000148A158A168A178A108E118E87E1828F87
:10153000138E148E08955058BB27AA270E94B30A11
:101540000C94FD0B0E94EF0B38F00E94F60B20F07C
:1015500039F49F3F19F426F40C94EC0B0EF4E0954B
:10156000E7FB0C94E60BE92F0E940E0C58F3BA1718
:10157000620773078407950720F079F4A6F50C94A9
:10158000300C0EF4E0950B2EBA2FA02D0B01B901F3
:1015900090010C01CA01A0011124FF27591B99F0E9
:1015A000593F50F4503E68F11A16F040A22F232FF5
:1015B000342F4427585FF3CF469537952795A79545
:1015C000F0405395C9F77EF41F16BA0B620B730BEC
:1015D000840BBAF09150A1F0FF0FBB1F661F771F5D
:1015E000881FC2F70EC0BA0F621F731F841F48F412
:1015F000879577956795B795F7959E3F08F0B0CF9B
:101600009395880F08F09927EE0F97958795089581
:101610000E941C0B0C94FD0B0E94F60B58F00E94CC
:10162000EF0B40F029F45F3F29F00C94E60B5111C9
:101630000C94310C0C94EC0B0E940E0C68F3992363
:10164000B1F3552391F3951B550BBB27AA276217BE
:101650007307840738F09F5F5F4F220F331F441FCB
:10166000AA1FA9F335D00E2E3AF0E0E832D09150FF
:101670005040E695001CCAF72BD0FE2F29D0660FEC
:10168000771F881FBB1F261737074807AB07B0E82F
:1016900009F0BB0B802DBF01FF2793585F4F3AF035
:1016A0009E3F510578F00C94E60B0C94310C5F3F93
:1016B000E4F3983ED4F3869577956795B795F795BB
:1016C0009F5FC9F7880F911D9695879597F90895A3
:1016D000E1E0660F771F881FBB1F6217730784073F
:1016E000BA0720F0621B730B840BBA0BEE1F88F74E
:1016F000E09508950E94160C88F09F5798F0B92F36
:101700009927B751B0F0E1F0660F771F881F991F36
:101710001AF0BA95C9F714C0B13091F00E94300C9C
:10172000B1E008950C94300C672F782F8827B85FAC
:1017300039F0B93FCCF3869577956795B395D9F78E
:101740003EF490958095709561957F4F8F4F9F4F98
:101750000895E89409C097FB3EF4909580957095A4
:1017600061957F4F8F4F9F4F9923A9F0F92F96E9ED
:10177000BB279395F695879577956795B795F11162
:10178000F8CFFAF4BB0F11F460FF1BC06F5F7F4FFF
:101790008F4F9F4F16C0882311F096E911C0772311
:1017A00021F09EE8872F762F05C0662371F096E81A
:1017B000862F70E060E02AF09A95660F771F881FE9
:1017C000DAF7880F9695879597F9089597F99F67A7
:1017D00080E870E060E008959FEF80EC08950024B9
:1017E0000A941616170618060906089500240A9486
:1017F00012161306140605060895092E0394000C0C
:1018000011F4882352F0BB0F40F4BF2B11F460FF9A
:1018100004C06F5F7F4F8F4F9F4F089557FD9058C3
:10182000440F551F59F05F3F71F04795880F97FBA4
:10183000991F61F09F3F79F087950895121613065E
:101840001406551FF2CF4695F1DF08C0161617068D
:101850001806991FF1CF86957105610508940895C2
:10186000E894BB2766277727CB0197F908950E9454
:101870004A0C0C94FD0B0E94EF0B38F00E94F60B03
:1018800020F0952311F00C94E60B0C94EC0B112432
:101890000C94310C0E940E0C70F3959FC1F3950FC0
:1018A00050E0551F629FF001729FBB27F00DB11DE4
:1018B000639FAA27F00DB11DAA1F649F6627B00D74
:1018C000A11D661F829F2227B00DA11D621F739F5D
:1018D000B00DA11D621F839FA00D611D221F749F6B
:1018E0003327A00D611D231F849F600D211D822FB2
:1018F000762F6A2F11249F5750409AF0F1F08823D9
:101900004AF0EE0FFF1FBB1F661F771F881F915005
:101910005040A9F79E3F510580F00C94E60B0C94C3
:10192000310C5F3FE4F3983ED4F386957795679545
:10193000B795F795E7959F5FC1F7FE2B880F911D2F
:101940009695879597F90895AA1BBB1B51E107C08F
:10195000AA1FBB1FA617B70710F0A61BB70B881F3F
:10196000991F5A95A9F780959095BC01CD010895CE
:10197000A1E21A2EAA1BBB1BFD010DC0AA1FBB1F93
:10198000EE1FFF1FA217B307E407F50720F0A21B05
:10199000B30BE40BF50B661F771F881F991F1A9472
:1019A00069F760957095809590959B01AC01BD019C
:1019B000CF010895A29FB001B39FC001A39F01D0A2
:1019C000B29F700D811D1124911D0895F3DFA59F15
:1019D000900DB49F900DA49F800D911D112408952A
:1019E000B7FFF4CFF3DF821B930B0895EE0FFF1FB9
:0C19F0000590F491E02D0994F894FFCFCD
:1019FC00000205070A0A05000A000001040203CDD3
:101A0C00029A05A407BC0CE81500000000DA027F5E
:101A1C0001DD01BB01CF012803E6041202F90149E3
:101A2C0003AC011010800000101010000010000416
:101A3C00050607030201000102030000000000017B
:101A4C000101010000000010204080080402010286
:101A5C0004080109000D0A00506F77657220416E71
:101A6C00616C797A657200302E3600444F4E450019
:00000001FF
