:1000000019C028C027C026C025C024C023C022C0D4
:1000100021C020C01FC01EC01DC0CFC11BC01AC040
:1000200019C018C017C016C015C014C0EEC112C048
:1000300011C010C011241FBECFEFCDBFDFE3DEBF64
:100040002EE3A0E0BEE301C01D92AA32B207E1F7A1
:1000500015D2C2C8D5CF893823E1920710F088E8BD
:1000600093E1E091053EF0E0EE0FFF1FEB50FE46FE
:10007000408151814817590720F48FEF8093810602
:1000800008959C01AFEFB0E09BD89A0150E040E0AA
:1000900075D8209381060895F8946091013E70917F
:1000A000023E8091033E9091043E7894089580939F
:1000B00018088091150886FFFCCF089580931708D3
:1000C00080911508807CE1F30895CF93DF93C82FCA
:1000D000D62FF4DF8D2FEBDF8C2F8160EFDF809147
:1000E000150887FFFCCF8091180892E090931408C0
:1000F00090E0982F88272091150827FFFCCF2091AA
:10010000180834E03093140833E030931408822B3D
:10011000DF91CF91089562E082E8D7DF96958795C9
:100120008C7FBC0190E080E024D720E030E040E00C
:100130005FE327D6F2D660931F3E7093203E64E0C3
:1001400082E8C3DF97FD05C08093213E9093223E55
:1001500008951092213E1092223E08951F93CF934E
:10016000DF93162FEA01AADF812FA1DF8D2F9FDFFA
:100170008C2F9DDF83E080931408DF91CF911F9136
:1001800008959091040895FFFCCF8093020808958C
:10019000EF92FF920F931F93CF93DF938C0186EE24
:1001A000E82E81E9F82EC0E0D0E0F70121913191ED
:1001B0007F0180E00217130728F08F5F021B130BEB
:1001C000D1E0F8CFD11102C0C43011F4805DD9DF85
:1001D000CF5FC53051F7DF91CF911F910F91FF9005
:1001E000EF900895CF93DF93EC018991882311F06C
:1001F000C8DFFBCFDF91CF910895F4DF8AE0C1CF54
:100200009C01293E85E1380710F028EE35E190E0A9
:1002100081E0890FE92FF0E0EE0FFF1FEB50FE4663
:100220004081518142175307C8F09093053E1092C8
:1002300081068091A000887F8093A0008091A0001B
:10024000E091053EF0E0E051FE469081892B8093DD
:10025000A00086EA8A95F1F700C00895982FD8CFBC
:10026000CF93DF93EC01CCDFCE01DF91CF91F3CEC2
:1002700090E080E0F5CFCF92DF92EF92FF92CF93A4
:10028000DF9361E080E821DF811520E1920708F02B
:100290008AC08093063E9093073E62E080E815DFB7
:1002A000EC016091063E7091073E90E080E061D6DF
:1002B00020E030E048EC52E4C8D56B017C01D695D3
:1002C000C795CC7FBE0190E080E053D69B01AC0186
:1002D000C701B60156D520E030E040E05FE351D5DC
:1002E0001CD66B016093233E7093243E64E080E84B
:1002F000ECDE97FD5DC08093253E9093263EA09155
:10030000253EB091263E96015BD76C507E4F8F4FB5
:100310009F4F28EE33E040E050E030D7B901209302
:100320000A3E30930B3E85E08093060681E0809381
:100330000B068093080680910B0680FFFCCF80910E
:100340001006909111068093083E9093093E693AF9
:10035000714618F48533934008F08ADF80910A3E95
:1003600090910B3E8D3B924038F48091083E9091E5
:10037000093E8A34924008F00C9A80910A3E90918E
:100380000B3E843F914040F48091083E9091093E9D
:100390008C31924008F40C98DF91CF91FF90EF9050
:1003A000DF90CF9008951092063E1092073E75CFD1
:1003B0001092253E1092263EA2CF1F920F920FB6AA
:1003C0000F9211248F939F93AF93BF9381E08093FB
:1003D000460A8091013E9091023EA091033EB09169
:1003E000043E0196A11DB11D8093013E9093023EF3
:1003F000A093033EB093043EBF91AF919F918F9124
:100400000F900FBE0F901F9018951F920F920FB66E
:100410000F9211248F939F93EF93FF938091000885
:1004200090911C3E911111C08A30C1F0E091003EC4
:10043000F0E0E45FF14C80838091003E8F3028F43F
:100440008091003E8F5F8093003EFF91EF919F91DE
:100450008F910F900FBE0F901F9018958091003EC6
:10046000882399F381E080931C3EE091003EF0E008
:10047000E45FF14C10821092003EE7CFCF93DF9300
:10048000CDB7DEB76897CDBFDEBF88ED90E084BF03
:1004900090936100229A86EB92E0809308089093F3
:1004A000090880E88093050880EC8093060884E1C1
:1004B0008093160811E0109313081093150847E66F
:1004C00056E260E080E84ADE40E054E165E080E822
:1004D00045DE47E65EE260E082E840DE40E054E16F
:1004E00065E082E83BDE8091A10081608093A100FD
:1004F00026EA2A95F1F700C0809116048460809363
:10050000160481E4809380061093000683E58093AF
:1005100002068FE19EE480934C0A90934D0A10935B
:10052000400A1093450A7894049A079A809115041A
:10053000846080931504AE01455F5F4F4B875C87F5
:1005400080911C3E811102C096DEFACF80910C3E54
:100550008093293E80E08F5FE82FF0E0E45FF14C6C
:1005600090819032C1F330E020E0E82FF0E0E45FCA
:10057000F14C9081913268F42093273E3093283ECD
:10058000E82FF0E0E45FF14C9081903281F48F5FCE
:10059000F7CF8F5F90816AE0629FA001639F500D4B
:1005A00011249A0120533109290F311DDECF30E08B
:1005B00020E0E82FF0E0E45FF14C9081992371F0A6
:1005C0008F5F9081EAE0E29FA001E39F500D11242C
:1005D0009A0120533109290F311DEBCF20931D3E85
:1005E00030931E3E10921C3E0F9AE091293EE25637
:1005F000E531F0F40E2E000CFF0BE050FD4F099496
:10060000ACC21BC015C0A0C12DC22DC111C00DC0F0
:100610000FC00EC0C8C030C30BC00AC009C008C09C
:10062000A7C3A8C383C304C005C08FEF91E9E5DD6C
:100630000F9886CF8EE092E9FACF8091273E909175
:10064000283E0EDE8FE493EC0197F1F700C0000026
:1006500023DD6B017C0120911D3E30911E3EA8EEF2
:10066000B3E0AED59B01AC012C0D3D1D4E1D5F1DB1
:100670002D8B3E8B4F8B588F198A1A8A1B8A1C8AA6
:100680001D861E861F86188A412C512C3201812C12
:10069000912C540110E000DD2D893E894F89588D41
:1006A000621773078407950708F062C3E4DD33DD42
:1006B00080910A3E90910B3E893A914608F058C3CA
:1006C0008091083E9091093E8533934008F050C3D5
:1006D0008091233E9091243E880E991EA11CB11C4E
:1006E0008091253E9091263E480E591E611C711C3A
:1006F00080911F3E9091203E2D853E854F855889E3
:10070000280F391F411D511D2D873E874F87588B5C
:100710008091213E9091223E29893A894B895C89BA
:10072000280F391F411D511D298B3A8B4B8B5C8B38
:100730001F5FC12ED12CF12CE12CC301B201A70106
:1007400096011CD5C90124DD82E192E94BDDC5018A
:10075000B401A701960112D5C9011ADD82E192E91F
:1007600041DD69897A898B899C89A701960106D523
:10077000C9010EDD82E192E935DD6D857E858F85CB
:100780009889A7019601FAD4C90102DD83E192E9B3
:1007900034DD3FE74AE156E0315040405040E1F758
:1007A00000C0000078CF10928106E0901D3EF090CE
:1007B0001E3E0091273E1091283E083863E116073F
:1007C00010F007E813E1C8011BDDDD24D394DD2020
:1007D00009F4CEC250DD80910A3E90910B3E893AD9
:1007E000914608F0C5C28091083E9091093E85333C
:1007F000934008F0BDC28091233E9091243E8E1517
:100800009F0508F4B5C2CC24C394CD0C8091253E3D
:100810009091263E0817190708F4AAC2D0928106C3
:100820008091253E9091263EB3DC82E192E9DADCAC
:100830008091233E9091243EABDC82E192E9D2DCB0
:1008400080910A3E90910B3EA3DC83E192E9D5DCD6
:100850002FE936E841E0215030404040E1F700C048
:100860000000DC2CB4CFA090273EB090283E8AE058
:10087000ECEDF1E9DE01119601900D928A95E1F718
:1008800047E45CE260E080E869DCC501B9DC04DCD7
:100890002B017C016B0154E6C50ED11CE11CF11C3F
:1008A0008E010F5F1F4F4AE0842E912CF801219199
:1008B0008F012A9DC0012B9D900D1124B4014AD4B3
:1008C000CB01C9DBE9DB6C157D058E059F0540F585
:1008D000D2DC80910A3E90910B3E893A914600F518
:1008E0008091083E9091093E85339340C8F4D4DB53
:1008F000CB01841995094CDC82E192E973DC80918B
:10090000253E9091263E44DC82E192E96BDC8091A9
:10091000233E9091243E3CDC83E192E96EDCD2CF11
:1009200034E6C30ED11CE11CF11C4B855C85041719
:10093000150709F0BBCF9CDC47E656E260E080E893
:100940000DDC84E192E973CE10928106E0901D3EA9
:10095000F0901E3E0091273E1091283E083853E14A
:10096000150710F007E813E1C8014ADCCC24C39452
:10097000CC2009F4FDC17FDCCEDB80910A3E909152
:100980000B3E893A914608F0F3C18091083E909160
:10099000093E8533934008F0EBC18091233E90914E
:1009A000243E8E159F0508F4E3C1DD24D394DC0CAE
:1009B0008091253E9091263E0817190708F4D8C16A
:1009C000C092810660910A3E70910B3E90E080E0FB
:1009D000D0D220E030E04AE754E459D34B015C0127
:1009E00020911F3E3091203EA091213EB091223EA9
:1009F000E7D36C507E4F8F4F9F4F28EE33E040E09F
:100A000050E0BCD3B90190E080E0B3D29B01AC01CF
:100A1000C501B4011AD220E030E040E05FE3B1D17B
:100A20007CD24B018091253E9091263EB1DB82E144
:100A300092E9D8DB8091233E9091243EA9DB82E1AC
:100A400092E9D0DBC401A4DB83E192E9D6DBFFE9C4
:100A500026E831E0F15020403040E1F700C00000CE
:100A6000CD2C86CF10928106A0901D3EB0901E3EE8
:100A70000091273E1091283E083843E1140710F0FA
:100A800007E813E1C801BCDB99249394992009F489
:100A90006FC1F1DB80910A3E90910B3E893A9146FD
:100AA00008F066C18091083E9091093E85339340DD
:100AB00008F05EC18091233E9091243E8A159B05EB
:100AC00008F456C18091253E9091263E08171907DB
:100AD00008F44EC146E45CE260E080E83FDB882435
:100AE0008A9430E9E32E35E6F32ED12CC12C62E056
:100AF00080E8EBDA969587958C7F8093233E9093E0
:100B0000243EC816D90608F46C018E159F0508F41A
:100B10007C018A948110EBCF47E656E260E080E8E2
:100B20001DDB909281068091253E9091263E30DB20
:100B300082E192E957DBC6018E199F0929DB83E127
:100B400092E95BDB8FE996E8E1E081509040E0407C
:100B5000E1F700C00000939499CF0091273E1091D7
:100B6000283E20901D3E30901E3E96DA2B013C011F
:100B70005C014B01F8EE8F0EF3E09F1EA11CB11C2F
:100B8000C801893B2BE0920710F088EB9BE068DB03
:100B90003FE946E851E0315040405040E1F700C0A5
:100BA0000000C12CD12C760180918106882309F4A4
:100BB000DFC061DB80910A3E90910B3E893A9146FD
:100BC00008F0D6C08091083E9091093E853393404D
:100BD00008F0CEC080911C3E882329F080910C3E05
:100BE000883709F4C5C08091233E9091243E821538
:100BF000930528F4809181068150809381064CDA18
:100C0000641975098609970928EE33E040E050E041
:100C1000B5D2C901BDDA82E192E9E4DA0091253E5C
:100C20001091263EC801B4DA82E192E9DBDA8091C4
:100C3000233E9091243EACDA82E192E9D3DAC701F7
:100C4000B60120E13EE040E050E098D2C901A0DAD0
:100C500083E192E9D2DA20DA681579058A059B05E5
:100C6000D0F3F8EE8F0EF3E09F1EA11CB11CC00E56
:100C7000D11EE11CF11C98CFFBDAC090273ED0902A
:100C8000283E00911D3E10911E3E06DA2B013C01CC
:100C9000F12CE12C5C014B018C0C9D1CAE1CBF1C8B
:100CA0009801A8EEB3E08CD29B01AC01240D351D58
:100CB000461D571D2D873E874F87588BEDD92D85B3
:100CC0003E854F855889261737074807590708F486
:100CD00038CE80911C3E882329F080910C3E8837C5
:100CE00009F42FCE18DAD8D9CB018419950950DA36
:100CF00082E192E977DA8091213E9091223E48DAB2
:100D000082E192E96FDA80911F3E9091203E40DAB5
:100D100083E192E972DAC0D9681579058A059B05E5
:100D2000D0F38C0C9D1CAE1CBF1CC8CFA4DAF3D929
:100D30008091253E9091263E2BDA82E192E952DAAB
:100D40008091233E9091243E23DA82E192E94ADAAF
:100D50008091213E9091223E1BDA82E192E942DAB3
:100D600080911F3E9091203E13DA83E192E95FCC9F
:100D70007FDAE7CD8091273E9091283E71DAE1CD70
:100D80005058BB27AA270ED048C139D130F03ED1E8
:100D900020F031F49F3F11F41EF42EC10EF4E095C3
:100DA000E7FB24C1E92F4AD180F3BA176207730722
:100DB0008407950718F071F49EF562C10EF4E09572
:100DC0000B2EBA2FA02D0B01B90190010C01CA0105
:100DD000A0011124FF27591B99F0593F50F4503EB0
:100DE00068F11A16F040A22F232F342F4427585FA2
:100DF000F3CF469537952795A795F0405395C9F7BA
:100E00007EF41F16BA0B620B730B840BBAF0915071
:100E1000A1F0FF0FBB1F661F771F881FC2F70EC010
:100E2000BA0F621F731F841F48F4879577956795E3
:100E3000B795F7959E3F08F0B3CF9395880F08F0CC
:100E40009927EE0F9795879508950CD0E6C0DED0D0
:100E500040F0D5D030F021F45F3F19F0C7C05111F8
:100E600010C1CAC0EBD098F39923C9F35523B1F34D
:100E7000951B550BBB27AA2762177307840738F009
:100E80009F5F5F4F220F331F441FAA1FA9F333D068
:100E90000E2E3AF0E0E830D091505040E695001C1C
:100EA000CAF729D0FE2F27D0660F771F881FBB1FD8
:100EB000261737074807AB07B0E809F0BB0B802DB2
:100EC000BF01FF2793585F4F2AF09E3F510568F0FE
:100ED0008DC0D7C05F3FECF3983EDCF386957795E5
:100EE0006795B795F7959F5FC9F7880F911D969500
:100EF000879597F90895E1E0660F771F881FBB1F5C
:100F0000621773078407BA0720F0621B730B840B08
:100F1000BA0BEE1F88F7E095089598D088F09F5798
:100F200090F0B92F9927B751A0F0D1F0660F771F35
:100F3000881F991F1AF0BA95C9F712C0B13081F015
:100F40009FD0B1E008959CC0672F782F8827B85FA5
:100F500039F0B93FCCF3869577956795B395D9F776
:100F60003EF490958095709561957F4F8F4F9F4F80
:100F70000895E89409C097FB3EF49095809570958C
:100F800061957F4F8F4F9F4F9923A9F0F92F96E9D5
:100F9000BB279395F695879577956795B795F1114A
:100FA000F8CFFAF4BB0F11F460FF1BC06F5F7F4FE7
:100FB0008F4F9F4F16C0882311F096E911C07723F9
:100FC00021F09EE8872F762F05C0662371F096E802
:100FD000862F70E060E02AF09A95660F771F881FD1
:100FE000DAF7880F9695879597F9089597F99F678F
:100FF00080E870E060E008959FEF80EC08950024A1
:101000000A941616170618060906089500240A946D
:1010100012161306140605060895092E0394000CF3
:1010200011F4882352F0BB0F40F4BF2B11F460FF82
:1010300004C06F5F7F4F8F4F9F4F089557FD9058AB
:10104000440F551F59F05F3F71F04795880F97FB8C
:10105000991F61F09F3F79F0879508951216130646
:101060001406551FF2CF4695F1DF08C01616170675
:101070001806991FF1CF86957105610508940895AA
:10108000E894BB2766277727CB0197F908950BD003
:10109000C4CFB5DF28F0BADF18F0952309F0A6CF4A
:1010A000ABCF1124EECFCADFA0F3959FD1F3950FFC
:1010B00050E0551F629FF001729FBB27F00DB11DDC
:1010C000639FAA27F00DB11DAA1F649F6627B00D6C
:1010D000A11D661F829F2227B00DA11D621F739F55
:1010E000B00DA11D621F839FA00D611D221F749F63
:1010F0003327A00D611D231F849F600D211D822FAA
:10110000762F6A2F11249F5750408AF0E1F08823F0
:101110004AF0EE0FFF1FBB1F661F771F881F9150FD
:101120005040A9F79E3F510570F060CFAACF5F3FB6
:10113000ECF3983EDCF3869577956795B795F79530
:10114000E7959F5FC1F7FE2B880F911D96958795B8
:1011500097F90895AA1BBB1B51E107C0AA1FBB1F2B
:10116000A617B70710F0A61BB70B881F991F5A9533
:10117000A9F780959095BC01CD010895A1E21A2EA2
:10118000AA1BBB1BFD010DC0AA1FBB1FEE1FFF1F2B
:10119000A217B307E407F50720F0A21BB30BE40B7B
:1011A000F50B661F771F881F991F1A9469F76095C2
:1011B0007095809590959B01AC01BD01CF0108957C
:1011C000A29FB001B39FC001A39F01D0B29F700D39
:0C11D000811D1124911D0895F894FFCF9B
:1011DC00000205070A0A05000A001027E80364004C
:1011EC000A0001000001040203CD029A05A407BC09
:1011FC000CE815506F77657220416E616C797A65D9
:0D120C007200312E31000900444F4E4500A4
:00000001FF
